{
  "contractName": "BlindAuction",
  "abi": [
    {
      "constant": true,
      "inputs": [],
      "name": "ended",
      "outputs": [
        {
          "name": "",
          "type": "bool"
        }
      ],
      "payable": false,
      "stateMutability": "view",
      "type": "function"
    },
    {
      "constant": true,
      "inputs": [],
      "name": "beneficiary",
      "outputs": [
        {
          "name": "",
          "type": "address"
        }
      ],
      "payable": false,
      "stateMutability": "view",
      "type": "function"
    },
    {
      "constant": true,
      "inputs": [],
      "name": "biddingEnd",
      "outputs": [
        {
          "name": "",
          "type": "uint256"
        }
      ],
      "payable": false,
      "stateMutability": "view",
      "type": "function"
    },
    {
      "constant": true,
      "inputs": [
        {
          "name": "",
          "type": "address"
        }
      ],
      "name": "bids",
      "outputs": [
        {
          "name": "blindBid",
          "type": "bytes32"
        },
        {
          "name": "deposit",
          "type": "uint256"
        }
      ],
      "payable": false,
      "stateMutability": "view",
      "type": "function"
    },
    {
      "constant": true,
      "inputs": [],
      "name": "testValue",
      "outputs": [
        {
          "name": "",
          "type": "uint256"
        }
      ],
      "payable": false,
      "stateMutability": "view",
      "type": "function"
    },
    {
      "constant": true,
      "inputs": [],
      "name": "highestBidder",
      "outputs": [
        {
          "name": "",
          "type": "address"
        }
      ],
      "payable": false,
      "stateMutability": "view",
      "type": "function"
    },
    {
      "constant": true,
      "inputs": [],
      "name": "revealEnd",
      "outputs": [
        {
          "name": "",
          "type": "uint256"
        }
      ],
      "payable": false,
      "stateMutability": "view",
      "type": "function"
    },
    {
      "constant": true,
      "inputs": [],
      "name": "highestBid",
      "outputs": [
        {
          "name": "",
          "type": "uint256"
        }
      ],
      "payable": false,
      "stateMutability": "view",
      "type": "function"
    },
    {
      "inputs": [
        {
          "name": "_beneficiary",
          "type": "address"
        },
        {
          "name": "_biddingTime",
          "type": "uint256"
        },
        {
          "name": "_revealTime",
          "type": "uint256"
        }
      ],
      "payable": false,
      "stateMutability": "nonpayable",
      "type": "constructor"
    },
    {
      "payable": false,
      "stateMutability": "nonpayable",
      "type": "fallback"
    },
    {
      "anonymous": false,
      "inputs": [
        {
          "indexed": false,
          "name": "winner",
          "type": "address"
        },
        {
          "indexed": false,
          "name": "highestBid",
          "type": "uint256"
        }
      ],
      "name": "AuctionEnded",
      "type": "event"
    },
    {
      "constant": false,
      "inputs": [],
      "name": "getCurrentTime",
      "outputs": [
        {
          "name": "",
          "type": "uint256"
        }
      ],
      "payable": false,
      "stateMutability": "nonpayable",
      "type": "function"
    },
    {
      "constant": false,
      "inputs": [
        {
          "name": "_value",
          "type": "uint256"
        },
        {
          "name": "nonce",
          "type": "uint256"
        }
      ],
      "name": "Encryption",
      "outputs": [
        {
          "name": "",
          "type": "bytes32"
        }
      ],
      "payable": false,
      "stateMutability": "nonpayable",
      "type": "function"
    },
    {
      "constant": false,
      "inputs": [
        {
          "name": "_blindBid",
          "type": "bytes32"
        }
      ],
      "name": "bid",
      "outputs": [],
      "payable": true,
      "stateMutability": "payable",
      "type": "function"
    },
    {
      "constant": false,
      "inputs": [
        {
          "name": "_value",
          "type": "uint256"
        },
        {
          "name": "nonce",
          "type": "uint256"
        }
      ],
      "name": "reveal",
      "outputs": [
        {
          "name": "",
          "type": "uint256"
        }
      ],
      "payable": false,
      "stateMutability": "nonpayable",
      "type": "function"
    },
    {
      "constant": false,
      "inputs": [],
      "name": "withdraw",
      "outputs": [],
      "payable": false,
      "stateMutability": "nonpayable",
      "type": "function"
    },
    {
      "constant": false,
      "inputs": [],
      "name": "auctionEnd",
      "outputs": [],
      "payable": false,
      "stateMutability": "nonpayable",
      "type": "function"
    },
    {
      "constant": false,
      "inputs": [],
      "name": "getBalance",
      "outputs": [
        {
          "name": "",
          "type": "uint256"
        }
      ],
      "payable": false,
      "stateMutability": "nonpayable",
      "type": "function"
    },
    {
      "constant": false,
      "inputs": [
        {
          "name": "_value",
          "type": "uint256"
        }
      ],
      "name": "setValue",
      "outputs": [
        {
          "name": "",
          "type": "uint256"
        }
      ],
      "payable": true,
      "stateMutability": "payable",
      "type": "function"
    }
  ],
  "bytecode": "0x608060405234801561001057600080fd5b50604051606080610d1a833981018060405281019080805190602001909291908051906020019092919080519060200190929190505050826000806101000a81548173ffffffffffffffffffffffffffffffffffffffff021916908373ffffffffffffffffffffffffffffffffffffffff1602179055508142016001819055508060015401600281905550505050610c6d806100ad6000396000f3006080604052600436106100e6576000357c0100000000000000000000000000000000000000000000000000000000900463ffffffff16806312065fe0146100f857806312fa6feb1461012357806329cb924d146101525780632a24f46c1461017d57806338af3eed146101945780633ccfd60b146101eb578063423b217f1461020257806348a5510e1461022d578063552410771461028057806362ea82db146102b45780638af5de721461031a57806391f90157146103455780639348cef71461039c578063957bb1e0146103e7578063a6e664771461040b578063d57bde7914610436575b3480156100f257600080fd5b50600080fd5b34801561010457600080fd5b5061010d610461565b6040518082815260200191505060405180910390f35b34801561012f57600080fd5b50610138610480565b604051808215151515815260200191505060405180910390f35b34801561015e57600080fd5b50610167610493565b6040518082815260200191505060405180910390f35b34801561018957600080fd5b5061019261049b565b005b3480156101a057600080fd5b506101a96105df565b604051808273ffffffffffffffffffffffffffffffffffffffff1673ffffffffffffffffffffffffffffffffffffffff16815260200191505060405180910390f35b3480156101f757600080fd5b50610200610604565b005b34801561020e57600080fd5b5061021761069c565b6040518082815260200191505060405180910390f35b34801561023957600080fd5b5061026260048036038101908080359060200190929190803590602001909291905050506106a2565b60405180826000191660001916815260200191505060405180910390f35b61029e6004803603810190808035906020019092919050505061070d565b6040518082815260200191505060405180910390f35b3480156102c057600080fd5b506102f5600480360381019080803573ffffffffffffffffffffffffffffffffffffffff169060200190929190505050610843565b6040518083600019166000191681526020018281526020019250505060405180910390f35b34801561032657600080fd5b5061032f610867565b6040518082815260200191505060405180910390f35b34801561035157600080fd5b5061035a61086d565b604051808273ffffffffffffffffffffffffffffffffffffffff1673ffffffffffffffffffffffffffffffffffffffff16815260200191505060405180910390f35b3480156103a857600080fd5b506103d16004803603810190808035906020019092919080359060200190929190505050610893565b6040518082815260200191505060405180910390f35b6104096004803603810190808035600019169060200190929190505050610a32565b005b34801561041757600080fd5b50610420610b18565b6040518082815260200191505060405180910390f35b34801561044257600080fd5b5061044b610b1e565b6040518082815260200191505060405180910390f35b60003073ffffffffffffffffffffffffffffffffffffffff1631905090565b600360009054906101000a900460ff1681565b600042905090565b60025480421115156104ac57600080fd5b600360009054906101000a900460ff161515156104c857600080fd5b6001600360006101000a81548160ff0219169083151502179055507fdaec4582d5d9595688c8c98545fdd1c696d41c6aeaeb636737e84ed2f5c00eda600660009054906101000a900473ffffffffffffffffffffffffffffffffffffffff16600754604051808373ffffffffffffffffffffffffffffffffffffffff1673ffffffffffffffffffffffffffffffffffffffff1681526020018281526020019250505060405180910390a16000809054906101000a900473ffffffffffffffffffffffffffffffffffffffff1673ffffffffffffffffffffffffffffffffffffffff166108fc6007549081150290604051600060405180830381858888f193505050501580156105db573d6000803e3d6000fd5b5050565b6000809054906101000a900473ffffffffffffffffffffffffffffffffffffffff1681565b6000600860003373ffffffffffffffffffffffffffffffffffffffff1673ffffffffffffffffffffffffffffffffffffffff1681526020019081526020016000205490506000811115610699573373ffffffffffffffffffffffffffffffffffffffff166108fc829081150290604051600060405180830381858888f19350505050158015610697573d6000803e3d6000fd5b505b50565b60015481565b6000338383604051808473ffffffffffffffffffffffffffffffffffffffff1673ffffffffffffffffffffffffffffffffffffffff166c0100000000000000000000000002815260140183815260200182815260200193505050506040518091039020905092915050565b6000806000809054906101000a900473ffffffffffffffffffffffffffffffffffffffff1673ffffffffffffffffffffffffffffffffffffffff161415151561075557600080fd5b61076933670de0b6b3a76400008402610b24565b506000809054906101000a900473ffffffffffffffffffffffffffffffffffffffff1673ffffffffffffffffffffffffffffffffffffffff166108fc670de0b6b3a764000084029081150290604051600060405180830381858888f193505050501580156107db573d6000803e3d6000fd5b503373ffffffffffffffffffffffffffffffffffffffff166108fc670de0b6b3a7640000840234039081150290604051600060405180830381858888f1935050505015801561082e573d6000803e3d6000fd5b50670de0b6b3a7640000820234039050919050565b60056020528060005260406000206000915090508060000154908060010154905082565b60045481565b600660009054906101000a900473ffffffffffffffffffffffffffffffffffffffff1681565b60008060008060015480421115156108aa57600080fd5b60025480421015156108bb57600080fd5b600088141580156108cd575060008714155b15156108d857600080fd5b600560003373ffffffffffffffffffffffffffffffffffffffff1673ffffffffffffffffffffffffffffffffffffffff1681526020019081526020016000209350670de0b6b3a764000088029250338888604051808473ffffffffffffffffffffffffffffffffffffffff1673ffffffffffffffffffffffffffffffffffffffff166c0100000000000000000000000002815260140183815260200182815260200193505050506040518091039020600019168460000154600019161415156109a057600080fd5b8360010154850194508284600101541015156109cc576109c03384610b24565b156109cb5782850394505b5b60006001028460000181600019169055503373ffffffffffffffffffffffffffffffffffffffff166108fc869081150290604051600060405180830381858888f19350505050158015610a23573d6000803e3d6000fd5b50849550505050505092915050565b6001548042101515610a4357600080fd5b600060010260001916600560003373ffffffffffffffffffffffffffffffffffffffff1673ffffffffffffffffffffffffffffffffffffffff1681526020019081526020016000206000015460001916141515610a9f57600080fd5b60408051908101604052808360001916815260200134815250600560003373ffffffffffffffffffffffffffffffffffffffff1673ffffffffffffffffffffffffffffffffffffffff16815260200190815260200160002060008201518160000190600019169055602082015181600101559050505050565b60025481565b60075481565b600060075482111515610b3a5760009050610c3b565b6000600660009054906101000a900473ffffffffffffffffffffffffffffffffffffffff1673ffffffffffffffffffffffffffffffffffffffff16141515610bee5760075460086000600660009054906101000a900473ffffffffffffffffffffffffffffffffffffffff1673ffffffffffffffffffffffffffffffffffffffff1673ffffffffffffffffffffffffffffffffffffffff168152602001908152602001600020600082825401925050819055505b8160078190555082600660006101000a81548173ffffffffffffffffffffffffffffffffffffffff021916908373ffffffffffffffffffffffffffffffffffffffff160217905550600190505b929150505600a165627a7a723058207d4ae1728013fc0cae294648f41aacb8ec759b4d780a73e003110dc1e02c231e0029",
  "source": "pragma solidity ^0.4.22;\n\n\ncontract BlindAuction {\n  struct Bid{\n      bytes32 blindBid;\n      uint deposit;\n  }\n\n  address public beneficiary; // 受益人\n//  uint public currentTime; // 当前时间\n  uint public biddingEnd; // 出价结束时间\n  uint public revealEnd;  // 揭示价格结束时间\n  bool public ended;  // 拍卖是否结束\n  uint public testValue; // 仅仅是为了测试用\n\n  mapping(address => Bid) public bids;  // 地址到竞标之间的映射\n\n  address public highestBidder; // 最高出价者\n  uint public highestBid;  // 最高出价\n\n  // 允许撤回没有成功的出价\n  mapping(address => uint) pendingReturns;\n\n  event AuctionEnded(address winner, uint highestBid);  // 拍卖结束的事件\n\n\n  /// 修饰符主要用于验证输入的正确\n  /// onlyBefore和onlyAfter用于验证是否大于或小于一个时间点\n  /// 其中‘_’是原始程序开始执行的地方\n  modifier onlyBefore(uint _time) { require(now < _time); _;  }\n  modifier onlyAfter(uint _time) {  require(now > _time); _;  }\n\n  // 构建函数：保存受益人、竞标结束时间、公示价格结束时间\n  constructor(address _beneficiary, uint _biddingTime, uint _revealTime) public {\n      beneficiary = _beneficiary;\n      biddingEnd = now + _biddingTime;\n      revealEnd = biddingEnd + _revealTime;\n  }\n\n  function getCurrentTime() public returns (uint){\n  //    currentTime = now;\n      return now;\n  }\n  // 由于truffle console中的web3.sha3（）的返回值与solidity不同，在这里用一个测试函数\n  // 为了得到hash值\n  function Encryption(uint _value, uint nonce) public returns (bytes32){\n      //require (_values != 0 && _fake != 0 && _secret != 0);\n        return sha3(msg.sender, _value, nonce);\n  }\n\n  /// 给出一个秘密出价_blindBid = sha3(value, fake, secret)\n  /// 给出的保证金只在出价正确时给予返回\n  /// 有效的出价要求出价的ether至少到达value，并且fake不是true\n  /// 设置fake为true，并且给出一个错误的出价可以隐藏真实的出价\n  /// 一个地址能够多次出价\n  /// 如果是我的话，我会限制一个人的出价都是有效的才进行进一步的操作，从而增加造假的难度\n  function bid(bytes32 _blindBid) public payable onlyBefore(biddingEnd) {\n      require(bids[msg.sender].blindBid == bytes32(0) );\n      bids[msg.sender] = Bid({blindBid: _blindBid, deposit:msg.value});\n  }\n\n\n  /// 公示你的出价，对于正确参与的出价，只要没有最终获胜，都会被归还\n  function reveal(uint _value, uint nonce) public onlyAfter(biddingEnd) onlyBefore(revealEnd) returns (uint){\n    //  uint length = bids[msg.sender].length;\n    //  require(_values.length == length);\n    //  require(_fake.length == length);\n    //  require(_secret.length == length);\n      require (_value != 0 && nonce != 0);\n\n      uint refund;\n\n      var bid = bids[msg.sender];\n      uint value = _value * 1 ether;\n      require(bid.blindBid == sha3(msg.sender, _value, nonce));\n      // bid不正确，不会退回押金\n      // 局部变量只能在离他最近的花括号中使用\n      //  uint value = _value * 1 ether;\n      refund += bid.deposit;\n      if (bid.deposit >= value) {\n          // 处理bid超过value的情况\n          if(placeBid(msg.sender, value)){\n                refund -= value;\n          }\n      }\n      // 防止再次claimed押金\n      bid.blindBid = bytes32(0);\n\n      msg.sender.transfer(refund);  // 如果之前没有置0，会有fallback风险\n      return refund;\n  }\n\n  // 这是个内部函数，只能被协约本身调用\n  function placeBid(address bidder, uint value) internal returns(bool success){\n      if(value <= highestBid){\n          return false;\n      }\n      if (highestBidder != 0){\n          // 返回押金给之前出价最高的人\n          pendingReturns[highestBidder] += highestBid;\n      }\n      highestBid = value;\n      highestBidder = bidder;\n      return true;\n  }\n\n  // 撤回过多的出价\n  function withdraw() public {\n      uint amount = pendingReturns[msg.sender];\n      if (amount > 0) {\n          // 一定要先置0，规避风险\n          msg.sender.transfer(amount);\n      }\n  }\n\n  // 拍卖结束，把代币发给受益人\n  function auctionEnd() public onlyAfter(revealEnd){\n      require(!ended);\n      ended = true;\n      emit AuctionEnded(highestBidder, highestBid);\n      beneficiary.transfer(highestBid);\n  }\n\n  function getBalance() public returns (uint) {\n      return this.balance;\n  }\n\n  function setValue(uint _value) public payable returns (uint){\n      require(beneficiary !=0 );\n    //  uint value = _value * 1 ether;\n    //  testValue = msg.value - value;\n      placeBid(msg.sender, _value * 1 ether);\n\n    //  sendValue(value);\n      beneficiary.transfer(_value * 1 ether);\n      msg.sender.transfer(msg.value - _value * 1 ether);\n      return msg.value - _value * 1 ether;\n  }\n\n  function sendValue(uint _testValue) internal {\n\n        beneficiary.transfer(_testValue);\n  }\n\n  function () public{\n        revert();\n  }\n}\n",
  "sourcePath": "H:\\TestContract\\BlindAuction\\contracts\\BlindAuction.sol",
  "compiler": {
    "name": "solc",
    "version": "0.4.24+commit.e67f0147.Emscripten.clang"
  },
  "schemaVersion": "2.0.1",
  "updatedAt": "2018-07-17T12:36:50.221Z"
}