{
  "contractName": "SimpleAuction",
  "abi": [
    {
      "constant": true,
      "inputs": [],
      "name": "duration",
      "outputs": [
        {
          "name": "",
          "type": "uint256"
        }
      ],
      "payable": false,
      "stateMutability": "view",
      "type": "function"
    },
    {
      "constant": true,
      "inputs": [],
      "name": "endTime",
      "outputs": [
        {
          "name": "",
          "type": "uint256"
        }
      ],
      "payable": false,
      "stateMutability": "view",
      "type": "function"
    },
    {
      "constant": true,
      "inputs": [],
      "name": "beneficiary",
      "outputs": [
        {
          "name": "",
          "type": "address"
        }
      ],
      "payable": false,
      "stateMutability": "view",
      "type": "function"
    },
    {
      "constant": true,
      "inputs": [],
      "name": "bidderNum",
      "outputs": [
        {
          "name": "",
          "type": "uint256"
        }
      ],
      "payable": false,
      "stateMutability": "view",
      "type": "function"
    },
    {
      "constant": true,
      "inputs": [],
      "name": "isEnded",
      "outputs": [
        {
          "name": "",
          "type": "bool"
        }
      ],
      "payable": false,
      "stateMutability": "view",
      "type": "function"
    },
    {
      "constant": true,
      "inputs": [
        {
          "name": "",
          "type": "address"
        }
      ],
      "name": "isBided",
      "outputs": [
        {
          "name": "",
          "type": "bool"
        }
      ],
      "payable": false,
      "stateMutability": "view",
      "type": "function"
    },
    {
      "constant": true,
      "inputs": [],
      "name": "hightBidPrice",
      "outputs": [
        {
          "name": "",
          "type": "uint256"
        }
      ],
      "payable": false,
      "stateMutability": "view",
      "type": "function"
    },
    {
      "constant": true,
      "inputs": [
        {
          "name": "",
          "type": "uint256"
        }
      ],
      "name": "bidders",
      "outputs": [
        {
          "name": "bidderAdderss",
          "type": "address"
        },
        {
          "name": "bidPrice",
          "type": "uint256"
        }
      ],
      "payable": false,
      "stateMutability": "view",
      "type": "function"
    },
    {
      "constant": true,
      "inputs": [],
      "name": "winner",
      "outputs": [
        {
          "name": "",
          "type": "uint256"
        }
      ],
      "payable": false,
      "stateMutability": "view",
      "type": "function"
    },
    {
      "constant": true,
      "inputs": [
        {
          "name": "",
          "type": "address"
        }
      ],
      "name": "isRefunded",
      "outputs": [
        {
          "name": "",
          "type": "bool"
        }
      ],
      "payable": false,
      "stateMutability": "view",
      "type": "function"
    },
    {
      "inputs": [
        {
          "name": "_duration",
          "type": "uint256"
        },
        {
          "name": "_beneficiary",
          "type": "address"
        }
      ],
      "payable": false,
      "stateMutability": "nonpayable",
      "type": "constructor"
    },
    {
      "constant": false,
      "inputs": [],
      "name": "bid",
      "outputs": [],
      "payable": true,
      "stateMutability": "payable",
      "type": "function"
    },
    {
      "constant": false,
      "inputs": [],
      "name": "auctionEnd",
      "outputs": [],
      "payable": false,
      "stateMutability": "nonpayable",
      "type": "function"
    }
  ],
  "bytecode": "0x608060405234801561001057600080fd5b506040516040806109d2833981018060405281019080805190602001909291908051906020019092919050505080600360006101000a81548173ffffffffffffffffffffffffffffffffffffffff021916908373ffffffffffffffffffffffffffffffffffffffff1602179055508160048190555081420160058190555050506109338061009f6000396000f3006080604052600436106100ba576000357c0100000000000000000000000000000000000000000000000000000000900463ffffffff1680630fb5a6b4146100bf5780631998aeef146100ea5780632a24f46c146100f45780633197cbb61461010b57806338af3eed1461013657806386037a891461018d578063a4fd6f56146101b8578063b93c0d8a146101e7578063cb10767c14610242578063cff29dfd1461026d578063dfbf53ae146102e1578063ffc9152e1461030c575b600080fd5b3480156100cb57600080fd5b506100d4610367565b6040518082815260200191505060405180910390f35b6100f261036d565b005b34801561010057600080fd5b5061010961050c565b005b34801561011757600080fd5b50610120610832565b6040518082815260200191505060405180910390f35b34801561014257600080fd5b5061014b610838565b604051808273ffffffffffffffffffffffffffffffffffffffff1673ffffffffffffffffffffffffffffffffffffffff16815260200191505060405180910390f35b34801561019957600080fd5b506101a261085e565b6040518082815260200191505060405180910390f35b3480156101c457600080fd5b506101cd610864565b604051808215151515815260200191505060405180910390f35b3480156101f357600080fd5b50610228600480360381019080803573ffffffffffffffffffffffffffffffffffffffff169060200190929190505050610877565b604051808215151515815260200191505060405180910390f35b34801561024e57600080fd5b50610257610897565b6040518082815260200191505060405180910390f35b34801561027957600080fd5b506102986004803603810190808035906020019092919050505061089d565b604051808373ffffffffffffffffffffffffffffffffffffffff1673ffffffffffffffffffffffffffffffffffffffff1681526020018281526020019250505060405180910390f35b3480156102ed57600080fd5b506102f66108e1565b6040518082815260200191505060405180910390f35b34801561031857600080fd5b5061034d600480360381019080803573ffffffffffffffffffffffffffffffffffffffff1690602001909291905050506108e7565b604051808215151515815260200191505060405180910390f35b60045481565b600960009054906101000a900460ff1615151561038957600080fd5b6000803373ffffffffffffffffffffffffffffffffffffffff1673ffffffffffffffffffffffffffffffffffffffff16815260200190815260200160002060009054906101000a900460ff161515156103e157600080fd5b60055442111515156103f257600080fd5b60016000803373ffffffffffffffffffffffffffffffffffffffff1673ffffffffffffffffffffffffffffffffffffffff16815260200190815260200160002060006101000a81548160ff02191690831515021790555060408051908101604052803373ffffffffffffffffffffffffffffffffffffffff1681526020013481525060016000600754815260200190815260200160002060008201518160000160006101000a81548173ffffffffffffffffffffffffffffffffffffffff021916908373ffffffffffffffffffffffffffffffffffffffff160217905550602082015181600101559050503460065410156104f857346006819055506007546008819055505b600760008154809291906001019190505550565b6000600960009054906101000a900460ff1615151561052a57600080fd5b6005544211151561053a57600080fd5b6001600960006101000a81548160ff02191690831515021790555060016002600060016000600854815260200190815260200160002060000160009054906101000a900473ffffffffffffffffffffffffffffffffffffffff1673ffffffffffffffffffffffffffffffffffffffff1673ffffffffffffffffffffffffffffffffffffffff16815260200190815260200160002060006101000a81548160ff021916908315150217905550600360009054906101000a900473ffffffffffffffffffffffffffffffffffffffff1673ffffffffffffffffffffffffffffffffffffffff166108fc600160006008548152602001908152602001600020600101549081150290604051600060405180830381858888f19350505050158015610665573d6000803e3d6000fd5b50600190505b600754811080156106fc5750600260006001600084815260200190815260200160002060000160009054906101000a900473ffffffffffffffffffffffffffffffffffffffff1673ffffffffffffffffffffffffffffffffffffffff1673ffffffffffffffffffffffffffffffffffffffff16815260200190815260200160002060009054906101000a900460ff16155b1561082f576001600260006001600085815260200190815260200160002060000160009054906101000a900473ffffffffffffffffffffffffffffffffffffffff1673ffffffffffffffffffffffffffffffffffffffff1673ffffffffffffffffffffffffffffffffffffffff16815260200190815260200160002060006101000a81548160ff0219169083151502179055506001600082815260200190815260200160002060000160009054906101000a900473ffffffffffffffffffffffffffffffffffffffff1673ffffffffffffffffffffffffffffffffffffffff166108fc60016000848152602001908152602001600020600101549081150290604051600060405180830381858888f19350505050158015610821573d6000803e3d6000fd5b50808060010191505061066b565b50565b60055481565b600360009054906101000a900473ffffffffffffffffffffffffffffffffffffffff1681565b60075481565b600960009054906101000a900460ff1681565b60006020528060005260406000206000915054906101000a900460ff1681565b60065481565b60016020528060005260406000206000915090508060000160009054906101000a900473ffffffffffffffffffffffffffffffffffffffff16908060010154905082565b60085481565b60026020528060005260406000206000915054906101000a900460ff16815600a165627a7a723058205c02788dfed268c4e293f7c4cce3f7df9836ba55f8d2212a93017344dfc08a010029",
  "source": "pragma solidity ^0.4.23;\r\ncontract SimpleAuction {\r\n\r\n\tmapping(address => bool) public isBided;\r\n\tmapping(uint => Bidder) public bidders;\r\n\tmapping(address => bool) public isRefunded;\r\n\r\n\taddress public beneficiary;\r\n\tuint public duration;\r\n\tuint public endTime;\r\n\tuint public hightBidPrice;\r\n\tuint public bidderNum;\r\n\tuint public winner;\r\n\tbool public isEnded;\r\n\r\n\tstruct Bidder{\r\n\t\taddress bidderAdderss;\r\n\t\tuint bidPrice;\r\n\t}\r\n\t\r\n\t//constructor\r\n\tconstructor(uint _duration, address _beneficiary) public {\r\n\t\tbeneficiary = _beneficiary;\r\n\t\tduration = _duration;\r\n\t\tendTime = now + _duration;\r\n\t}\r\n\r\n\t//bid\r\n\tfunction bid() public payable{\r\n\t\trequire(!isEnded);\r\n\t\trequire(!isBided[msg.sender]);\r\n\t\trequire(now <= endTime);\r\n\r\n\t\tisBided[msg.sender] = true;\r\n\t\tbidders[bidderNum] = Bidder(msg.sender, msg.value);\r\n\r\n\t\tif(hightBidPrice < msg.value){\r\n\t\t\thightBidPrice = msg.value;\r\n\t\t\twinner = bidderNum;\r\n\t\t}\r\n\t\tbidderNum ++;\r\n\t}\r\n\r\n\r\n\t//Auction End\r\n\tfunction auctionEnd() public {\r\n\t\trequire(!isEnded);\r\n\t\trequire(now > endTime);\r\n\t\tisEnded = true;\r\n\r\n\t\tisRefunded[bidders[winner].bidderAdderss] = true;\r\n\t\tbeneficiary.transfer(bidders[winner].bidPrice);\r\n\t\tfor(uint i = 1;(i < bidderNum) && (!isRefunded[bidders[i].bidderAdderss]);i ++){\r\n\t\t\tisRefunded[bidders[i].bidderAdderss] = true;\r\n\t\t\tbidders[i].bidderAdderss.transfer(bidders[i].bidPrice);\r\n\t\t}\r\n\t}\r\n}",
  "sourcePath": "E:\\MR.XIAO\\Code Repository\\GitRepository\\SimpleAuction2\\contracts\\SimpleAuction.sol",
  "compiler": {
    "name": "solc",
    "version": "0.4.24+commit.e67f0147.Emscripten.clang"
  },
  "schemaVersion": "2.0.1",
  "updatedAt": "2018-12-19T15:00:25.319Z"
}